:020000020000FC
:10000000000058E05EBF5FEF5DBF1AD02AD051E01C
:10001000509300011CD048D050E050930101009053
:10002000010103940092010150E0509300010FD0B0
:100030003BD060910101673090F3E9CF8895FECF06
:1000400050E055B950E058B950E05BB908952B988D
:100050002C9829985090000150FC299A2C9A2B9AA0
:100060000895259A249A239A229A219A2D982C98B9
:100070002B982A9829982D9A559A549A539A529ABD
:10008000519A5D985C985B985A9859985D9A089532
:10009000E395AEEF94E19A95F1F7AA95D9F7DA9541
:1000A000C1F7EA95B1F708954FEF46B140FD02C0A0
:1000B00005D00895D4E6E0E0EBDF08955AE0FADFDA
:0600C0005A95E9F70895CE
:00000001FF
